{
  "contractName": "FreelanceContract",
  "abi": [
    {
      "inputs": [
        {
          "internalType": "address",
          "name": "_employer",
          "type": "address"
        },
        {
          "internalType": "address",
          "name": "_freelancer",
          "type": "address"
        },
        {
          "internalType": "uint256",
          "name": "_agreedAmount",
          "type": "uint256"
        },
        {
          "internalType": "uint256",
          "name": "_startDate",
          "type": "uint256"
        },
        {
          "internalType": "uint256",
          "name": "_endDate",
          "type": "uint256"
        },
        {
          "internalType": "string",
          "name": "_status",
          "type": "string"
        },
        {
          "internalType": "string",
          "name": "_paymentStatus",
          "type": "string"
        }
      ],
      "stateMutability": "nonpayable",
      "type": "constructor"
    },
    {
      "inputs": [],
      "name": "agreedAmount",
      "outputs": [
        {
          "internalType": "uint256",
          "name": "",
          "type": "uint256"
        }
      ],
      "stateMutability": "view",
      "type": "function"
    },
    {
      "inputs": [],
      "name": "employer",
      "outputs": [
        {
          "internalType": "address",
          "name": "",
          "type": "address"
        }
      ],
      "stateMutability": "view",
      "type": "function"
    },
    {
      "inputs": [],
      "name": "endDate",
      "outputs": [
        {
          "internalType": "uint256",
          "name": "",
          "type": "uint256"
        }
      ],
      "stateMutability": "view",
      "type": "function"
    },
    {
      "inputs": [],
      "name": "freelancer",
      "outputs": [
        {
          "internalType": "address",
          "name": "",
          "type": "address"
        }
      ],
      "stateMutability": "view",
      "type": "function"
    },
    {
      "inputs": [],
      "name": "paymentStatus",
      "outputs": [
        {
          "internalType": "string",
          "name": "",
          "type": "string"
        }
      ],
      "stateMutability": "view",
      "type": "function"
    },
    {
      "inputs": [],
      "name": "startDate",
      "outputs": [
        {
          "internalType": "uint256",
          "name": "",
          "type": "uint256"
        }
      ],
      "stateMutability": "view",
      "type": "function"
    },
    {
      "inputs": [],
      "name": "status",
      "outputs": [
        {
          "internalType": "string",
          "name": "",
          "type": "string"
        }
      ],
      "stateMutability": "view",
      "type": "function"
    }
  ],
  "bytecode": "0x608060405234801562000010575f80fd5b5060405162000d7c38038062000d7c8339818101604052810190620000369190620003fb565b5f73ffffffffffffffffffffffffffffffffffffffff168773ffffffffffffffffffffffffffffffffffffffff1603620000a7576040517f08c379a00000000000000000000000000000000000000000000000000000000081526004016200009e9062000545565b60405180910390fd5b5f73ffffffffffffffffffffffffffffffffffffffff168673ffffffffffffffffffffffffffffffffffffffff160362000118576040517f08c379a00000000000000000000000000000000000000000000000000000000081526004016200010f90620005b3565b60405180910390fd5b865f806101000a81548173ffffffffffffffffffffffffffffffffffffffff021916908373ffffffffffffffffffffffffffffffffffffffff1602179055508560015f6101000a81548173ffffffffffffffffffffffffffffffffffffffff021916908373ffffffffffffffffffffffffffffffffffffffff1602179055508460028190555083600381905550826004819055508160059081620001bd919062000801565b508060069081620001cf919062000801565b5050505050505050620008e5565b5f604051905090565b5f80fd5b5f80fd5b5f73ffffffffffffffffffffffffffffffffffffffff82169050919050565b5f6200021982620001ee565b9050919050565b6200022b816200020d565b811462000236575f80fd5b50565b5f81519050620002498162000220565b92915050565b5f819050919050565b62000263816200024f565b81146200026e575f80fd5b50565b5f81519050620002818162000258565b92915050565b5f80fd5b5f80fd5b5f601f19601f8301169050919050565b7f4e487b71000000000000000000000000000000000000000000000000000000005f52604160045260245ffd5b620002d7826200028f565b810181811067ffffffffffffffff82111715620002f957620002f86200029f565b5b80604052505050565b5f6200030d620001dd565b90506200031b8282620002cc565b919050565b5f67ffffffffffffffff8211156200033d576200033c6200029f565b5b62000348826200028f565b9050602081019050919050565b5f5b838110156200037457808201518184015260208101905062000357565b5f8484015250505050565b5f620003956200038f8462000320565b62000302565b905082815260208101848484011115620003b457620003b36200028b565b5b620003c184828562000355565b509392505050565b5f82601f830112620003e057620003df62000287565b5b8151620003f28482602086016200037f565b91505092915050565b5f805f805f805f60e0888a031215620004195762000418620001e6565b5b5f620004288a828b0162000239565b97505060206200043b8a828b0162000239565b96505060406200044e8a828b0162000271565b9550506060620004618a828b0162000271565b9450506080620004748a828b0162000271565b93505060a088015167ffffffffffffffff811115620004985762000497620001ea565b5b620004a68a828b01620003c9565b92505060c088015167ffffffffffffffff811115620004ca57620004c9620001ea565b5b620004d88a828b01620003c9565b91505092959891949750929550565b5f82825260208201905092915050565b7f496e76616c696420656d706c6f796572206164647265737300000000000000005f82015250565b5f6200052d601883620004e7565b91506200053a82620004f7565b602082019050919050565b5f6020820190508181035f8301526200055e816200051f565b9050919050565b7f496e76616c696420667265656c616e63657220616464726573730000000000005f82015250565b5f6200059b601a83620004e7565b9150620005a88262000565565b602082019050919050565b5f6020820190508181035f830152620005cc816200058d565b9050919050565b5f81519050919050565b7f4e487b71000000000000000000000000000000000000000000000000000000005f52602260045260245ffd5b5f60028204905060018216806200062257607f821691505b602082108103620006385762000637620005dd565b5b50919050565b5f819050815f5260205f209050919050565b5f6020601f8301049050919050565b5f82821b905092915050565b5f600883026200069c7fffffffffffffffffffffffffffffffffffffffffffffffffffffffffffffffff826200065f565b620006a886836200065f565b95508019841693508086168417925050509392505050565b5f819050919050565b5f620006e9620006e3620006dd846200024f565b620006c0565b6200024f565b9050919050565b5f819050919050565b6200070483620006c9565b6200071c6200071382620006f0565b8484546200066b565b825550505050565b5f90565b6200073262000724565b6200073f818484620006f9565b505050565b5b8181101562000766576200075a5f8262000728565b60018101905062000745565b5050565b601f821115620007b5576200077f816200063e565b6200078a8462000650565b810160208510156200079a578190505b620007b2620007a98562000650565b83018262000744565b50505b505050565b5f82821c905092915050565b5f620007d75f1984600802620007ba565b1980831691505092915050565b5f620007f18383620007c6565b9150826002028217905092915050565b6200080c82620005d3565b67ffffffffffffffff8111156200082857620008276200029f565b5b6200083482546200060a565b620008418282856200076a565b5f60209050601f83116001811462000877575f841562000862578287015190505b6200086e8582620007e4565b865550620008dd565b601f19841662000887866200063e565b5f5b82811015620008b05784890151825560018201915060208501945060208101905062000889565b86831015620008d05784890151620008cc601f891682620007c6565b8355505b6001600288020188555050505b505050505050565b61048980620008f35f395ff3fe608060405234801561000f575f80fd5b506004361061007b575f3560e01c8063900feb3b11610059578063900feb3b146100d9578063a37dda2c146100f7578063ae200e7914610115578063c24a0f8b146101335761007b565b80630b97bc861461007f5780631a8315d51461009d578063200d2ed2146100bb575b5f80fd5b610087610151565b60405161009491906102db565b60405180910390f35b6100a5610157565b6040516100b291906102db565b60405180910390f35b6100c361015d565b6040516100d0919061037e565b60405180910390f35b6100e16101e9565b6040516100ee919061037e565b60405180910390f35b6100ff610275565b60405161010c91906103dd565b60405180910390f35b61011d61029a565b60405161012a91906103dd565b60405180910390f35b61013b6102bd565b60405161014891906102db565b60405180910390f35b60035481565b60025481565b6005805461016a90610423565b80601f016020809104026020016040519081016040528092919081815260200182805461019690610423565b80156101e15780601f106101b8576101008083540402835291602001916101e1565b820191905f5260205f20905b8154815290600101906020018083116101c457829003601f168201915b505050505081565b600680546101f690610423565b80601f016020809104026020016040519081016040528092919081815260200182805461022290610423565b801561026d5780601f106102445761010080835404028352916020019161026d565b820191905f5260205f20905b81548152906001019060200180831161025057829003601f168201915b505050505081565b60015f9054906101000a900473ffffffffffffffffffffffffffffffffffffffff1681565b5f8054906101000a900473ffffffffffffffffffffffffffffffffffffffff1681565b60045481565b5f819050919050565b6102d5816102c3565b82525050565b5f6020820190506102ee5f8301846102cc565b92915050565b5f81519050919050565b5f82825260208201905092915050565b5f5b8381101561032b578082015181840152602081019050610310565b5f8484015250505050565b5f601f19601f8301169050919050565b5f610350826102f4565b61035a81856102fe565b935061036a81856020860161030e565b61037381610336565b840191505092915050565b5f6020820190508181035f8301526103968184610346565b905092915050565b5f73ffffffffffffffffffffffffffffffffffffffff82169050919050565b5f6103c78261039e565b9050919050565b6103d7816103bd565b82525050565b5f6020820190506103f05f8301846103ce565b92915050565b7f4e487b71000000000000000000000000000000000000000000000000000000005f52602260045260245ffd5b5f600282049050600182168061043a57607f821691505b60208210810361044d5761044c6103f6565b5b5091905056fea2646970667358221220c1b21af482f871cf3552c7cb18831847f826609ab83e10ed9f635a72fa358de564736f6c63430008150033",
  "immutableReferences": {},
  "source": "// contracts/FreelanceContract.sol\r\n// SPDX-License-Identifier: MIT\r\npragma solidity ^0.8.21;\r\n\r\ncontract FreelanceContract {\r\n    address public employer;\r\n    address public freelancer;\r\n    uint256 public agreedAmount;\r\n    uint256 public startDate;\r\n    uint256 public endDate;\r\n    string public status;\r\n    string public paymentStatus;\r\n\r\n    constructor(\r\n        address _employer,\r\n        address _freelancer,\r\n        uint256 _agreedAmount,\r\n        uint256 _startDate,\r\n        uint256 _endDate,\r\n        string memory _status,\r\n        string memory _paymentStatus\r\n    ) {\r\n        require(_employer != address(0), \"Invalid employer address\");\r\n        require(_freelancer != address(0), \"Invalid freelancer address\");\r\n        \r\n        employer = _employer;\r\n        freelancer = _freelancer;\r\n        agreedAmount = _agreedAmount;\r\n        startDate = _startDate;\r\n        endDate = _endDate;\r\n        status = _status;\r\n        paymentStatus = _paymentStatus;\r\n    }\r\n}",
  "sourcePath": "C:\\Users\\ramesh\\Desktop\\pcps\\Projects\\freelancefusion\\freelancefusionsmartcontract\\contracts\\FreelanceContract.sol",
  "compiler": {
    "name": "solc",
    "version": "0.8.21+commit.d9974bed.Emscripten.clang"
  },
  "schemaVersion": "3.4.16",
  "updatedAt": "2025-03-30T06:59:57.635Z",
  "devdoc": {
    "kind": "dev",
    "methods": {},
    "version": 1
  },
  "userdoc": {
    "kind": "user",
    "methods": {},
    "version": 1
  }
}